:100000000C9437010C9449010C9449010C943A2E3C
:100010000C94692E0C9449010C9449010C944901EB
:100020000C9449010C9449010C9449010C94B72E8D
:100030000C9449010C9449010C9449010C94490118
:100040000C94A12E0C9449010C94D9300C94793164
:100050000C9449010C9449010C9449010C944901F8
:100060000C9449010C944901084AD73B3BCE016EE0
:1000700084BCBFFDC12F3D6C74319ABD56833DDAFF
:100080003D00C77F11BED9E4BB4C3E916BAAAABE0E
:10009000000000803F05A84CCDB2D44EB93836A937
:1000A000020C50B9918688083CA6AAAA2ABE000074
:1000B00000803F000D0A4772626C20312E316620AD
:1000C0005B27242720666F722068656C705D0D0ABF
:1000D00000244E005B4F50543A005B5645523A3173
:1000E0002E31662E32303137303830313A005B54A1
:1000F0004C4F3A005B4739323A0033300032380017
:100100005B4700204700204D00204600205400336C
:10011000382E005B47433A47005B484C503A242452
:1001200020242320244720244920244E2024783DC5
:1001300076616C20244E783D6C696E6520244A3DC2
:100140006C696E652024534C502024432024582091
:100150002448207E2021203F206374726C2D785D1E
:100160000D0A00414C41524D3A007C413A007C4F0F
:10017000763A007C57434F3A007C506E3A007C57E9
:10018000506F733A007C4D506F733A00536C656545
:100190007000446F6F723A00436865636B00416C96
:1001A00061726D00486F6D65004A6F6700486F6C43
:1001B000643A0052756E0049646C65000D0A005B7C
:1001C0005052423A006572726F723A006F6B0D0ABC
:1001D00000536C656570696E6700526573746F7269
:1001E000696E67207370696E646C65005265737424
:1001F0006F72696E672064656661756C7473005018
:10020000676D20456E6400436865636B204C696DC3
:1002100069747300436865636B20446F6F720044B8
:10022000697361626C656400456E61626C6564004F
:1002300043617574696F6E3A20556E6C6F636B65C0
:100240006400272448277C2724582720746F2075B2
:100250006E6C6F636B00526573657420746F2063FE
:100260006F6E74696E7565005B4D53473A001124DB
:100270001FBECFEFD8E0DEBFCDBF27E0A0E0B1E0EA
:1002800001C01D92A730B207E1F70E94A3310C9480
:10029000FB3B0C9400008F929F92AF92BF92CF9243
:1002A000DF92EF92FF920F931F93CF93DF937C0126
:1002B0006B01DC01EC91F0E0E954F94F8081EF0132
:1002C0008D3229F52296818101E0912CF0E010E039
:1002D00020E030E0A9015E01E0EDE80FEA3018F51A
:1002E000FF5FF930E0F491101150A5E0B0E00E94FA
:1002F00073379B01AC01220F331F441F551F2E0F74
:10030000311D411D511D2196D5018C91E4CF8B32B9
:1003100019F0219600E0D9CF22968181FBCF911070
:10032000F2CF1F5FF0CFEE3F29F4911003C0992464
:100330009394E9CFFF23F9F0CA01B9010E9435393E
:100340004B015C0120E030E0A9010E94833881115B
:100350002BC0002309F445C0B7FAB094B7F8B094A5
:10036000F60180829182A282B382C75BD640C150DF
:10037000F701C083F1E08F2FDF91CF911F910F9193
:10038000FF90EF90DF90CF90BF90AF909F908F90B5
:1003900008952AE037ED43E25CE3C501B4010E9411
:1003A000E53A4B015C011E5F1F3F9CF31F3F59F470
:1003B0002DEC3CEC4CEC5DE3C501B4010E94E53A48
:1003C0004B015C01C6CF112321F220E030E040E276
:1003D00051E4C501B4010E94E53A4B015C011150A2
:1003E000F2CFD6018D929D92AD92BC921397BDCF64
:1003F0006F927F928F929F92AF92BF92CF92DF9235
:10040000EF92FF920F931F93CF93DF93EB018C0139
:100410005B018CE0A80EB11C89E9682E96E7792E65
:1004200026E9822E3EE7932EC990D990E990F99063
:1004300020E030E0A901C701B6010E94833888237B
:10044000B9F0A7019601F8016081718182819381E1
:100450000E948D386B017C01E894F7F89301A401A8
:10046000C701B6010E94A53A181614F036014701DB
:100470000C5F1F4FCA15DB05B9F6B301C401DF914C
:10048000CF911F910F91FF90EF90DF90CF90BF9091
:10049000AF909F908F907F906F90089593B18091CF
:1004A0002D0686FF0BC0967159F091FB882780F9C5
:1004B00092FD8260907129F0846008959095F3CF49
:1004C00080E00895EBE6F0E08081897E8083E8E6B5
:1004D000F0E080818E7F8083089584B1897E84B925
:1004E00085B1866185B980912D0683FF0BC080910F
:1004F0006B00866180936B008091680081608093BF
:10050000680008950C946202F894F999FECF92BDA8
:1005100081BD81E08FBB20B5862F8227082E000C7D
:10052000990B50E086239523892B49F084E16F3F96
:1005300011F060BD84E08FBBF99A78940895261776
:10054000E1F360BD84E2F7CF9F92AF92BF92CF926A
:10055000DF92EF92FF920F931F93CF93DF935C0193
:100560008A017B01E40EF51EEB01912C6C01C61A89
:10057000D70ACE018C0D9D1D21E0911007C0292DB9
:10058000990C330B232F221F2227221F6991962EAD
:10059000920E0E948402CE15DF0559F7692DC50120
:1005A000800F911FDF91CF911F910F91FF90EF90DE
:1005B000DF90CF90BF90AF909F900C948402F999F8
:1005C000FECF92BD81BD81E08FBB80B508959F9223
:1005D000AF92BF92CF92DF92EF92FF920F931F9351
:1005E000CF93DF935B018A017C01E40EF51EEC01E1
:1005F000912C6B01C81AD90AC6018C0F9D1F0E944D
:10060000DF0221E0911007C0292D990C330B232F15
:10061000221F2227221F982E920E8993CE15DF05C6
:1006200059F7C501800F911F0E94DF0221E030E0E1
:10063000891511F030E020E0C901DF91CF911F91C1
:100640000F91FF90EF90DF90CF90BF90AF909F9071
:1006500008959091DC05911105C0811104C0439863
:100660001092E605089586FFFBCF439AF9CF2FB786
:10067000F8949091BC05892B8093BC052FBF0895F9
:100680002FB7F8949091BB05892B8093BB052FBFA2
:1006900008959FB7F8948093BF059FBF08959FB7B3
:1006A000F8942091C005809582238093C0059FBF58
:1006B00008952FB7F8949091C005892B8093C005B9
:1006C0002FBF0895AF92BF92CF92DF92EF92FF9229
:1006D0000F931F93CF93DF93EC010CE016E05C01C6
:1006E0008CE0A80EB11CC990D990E990F99020E057
:1006F00030E0A901C701B6010E94A53A1816DCF046
:10070000F80121913191419151918F01C701B601B9
:100710000E94833887FD0FC0CA15DB0521F780E0F2
:10072000DF91CF911F910F91FF90EF90DF90CF90CD
:10073000BF90AF90089581E0F3CF4F925F926F9298
:100740007F928F929F92AF92BF92CF92DF92EF9261
:10075000FF920F931F93CF938B016C017B01C0E03D
:1007600082E0882E912CA12CB12CC1113BC0F80144
:100770006081718182819381448055806680778019
:10078000640D751D861D971DA50194010E944E37AD
:10079000CA01B9010E9437392091E8053091E90575
:1007A0004091EA055091EB050E948D38F601619366
:1007B0007193819391936F01CF5FF4E0EF0EF11C81
:1007C000C33099F6CF911F910F91FF90EF90DF907A
:1007D000CF90BF90AF909F908F907F906F905F90E1
:1007E0004F900895C130F1F4F801608171818281E8
:1007F00093814480558066807780641975098609E5
:100800009709A50194010E944E37CA01B9010E94BF
:1008100037392091EC053091ED054091EE0550916E
:10082000EF05C2CFF70160817181828193810E94BF
:1008300037392091F0053091F1054091F205509142
:10084000F305B2CF62EC75E085E596E00C949D036C
:1008500096B1892F877039F0892F8095817091FF2B
:10086000826092FF84600895CF93DF93C091B905B1
:10087000D091BA052097C9F080918F05816080934F
:100880008F056091A5057091A6058091A7059091AF
:10089000A8059B01AC010E94E53A6A8B7B8B8C8B8F
:1008A0009D8B1092BA051092B905DF91CF910895F2
:1008B00090911906492F80911A06282F90FF11C098
:1008C00094E080FF10C080E241FD986021FD8064CB
:1008D00042FD906122FD806890930A0280930B0292
:1008E000089590E0EECF80E0EFCF80912D0682FF5B
:1008F00013C0289A80910A0280931B0280911806E7
:100900008250990B880F819580931A0280916F0015
:10091000826080936F0008952898ECCF9091DC0559
:10092000911105C0811104C02D981092E60508951B
:100930002D9AFBCF6AE090E080E00E94840245E5BA
:1009400050E068EE75E081E090E00C94A402E09144
:100950001C0191E09E0F993609F490E020918601E8
:10096000291761F0F0E0E35EFE4F808390931C0155
:100970008091C10080628093C10004C02091C005B5
:1009800024FFECCF0895CF93DF93C7EBD6E0899196
:10099000811103C0DF91CF9108950E94A704F7CF82
:1009A0008F929F92AF92BF92CF92DF92EF92FF927F
:1009B0000F931F93CF93DF93CDB7DEB72D970FB66D
:1009C000F894DEBF0FBECDBF6B017C01042F20E089
:1009D00030E0A9010E94833887FF07C08DE20E94A2
:1009E000A704F7FAF094F7F8F094102F123008F0FB
:1009F00054C000FF0AC020E030E040E251E4C701EB
:100A0000B6010E94E53A6B017C0120E030E040E055
:100A10005FE3C701B6010E948E370E94FF3810E0E5
:100A20003AE0832E912CA12CB12CE12FF0E061153E
:100A3000710581059105E9F581E090E08C0F9D1F1E
:100A4000E80FF91F80E3101708F445C0101309C020
:100A5000E1E0F0E0EC0FFD1FE10FF11D80E380838A
:100A60001F5FEE24E394F12CEC0EFD1EE10EF11C51
:100A7000111134C02D960FB6F894DEBF0FBECDBF56
:100A8000DF91CF911F910F91FF90EF90DF90CF906A
:100A9000BF90AF909F908F90089520E030E048EC99
:100AA00052E4C701B6010E94E53A6B017C01125085
:100AB0009DCFEE24E394F12CEC0EFD1EEE0EFF1EF6
:100AC000A50194010E942C37605DF7016083B90194
:100AD000CA011F5FAACF1F5F8193B5CF101303C058
:100AE0008EE20E94A704F70182917F010E94A70471
:100AF0001150BECF20912D0643E020FF07C02BE808
:100B000032E441E25DE30E94E53A44E00C94D00413
:100B1000CF93DF93843658F06AE00E940C37C0E32D
:100B2000C90F6AE00E940C37D0E3D90F04C0C0E0BF
:100B3000D0E08A30B0F7805D0E94A704DD2319F071
:100B40008D2F0E94A704CC2329F08C2FDF91CF9109
:100B50000C94A704DF91CF910895CF93DF93EC011C
:100B6000FE0184912196811103C0DF91CF910895F8
:100B70000E94A704F5CF0F931F93CF938C01C0E081
:100B8000F80161917191819191918F010E947A0593
:100B9000C23019F08CE20E94A704CF5FC33081F706
:100BA000CF911F910F9108958CEB91E00C94AD05BE
:100BB000CF93C82F85EC91E00E94AD058C2F0E9449
:100BC0008805CF910C94D405811104C08CEC91E080
:100BD0000C94AD050C94D805CF92DF92EF92FF9262
:100BE000CF93DF93D82F6A017B01C22F84E20E944A
:100BF000A7048D2F0E9488058DE30E94A7044C2F27
:100C0000C701B6010E94D004DF91CF91FF90EF9011
:100C1000DF90CF900C94D405CF93DF93D82FC62FBD
:100C200084E20E94A7048D2F0E9488058DE30E9414
:100C3000A7048C2F0E948805DF91CF910C94D405D6
:100C4000EF92FF920F931F93CF93DF93609118065B
:100C500070E080E00E940C0660911B0670E081E06D
:100C60000E940C066091190670E082E00E940C065A
:100C700060911A0670E083E00E940C0660912D06D8
:100C800062FB662760F970E084E00E940C066091C8
:100C90002D0666FB662760F970E085E00E940C0671
:100CA00080912D06082E000C990B692F661F662770
:100CB000661F70E086E00E940C0660911C0670E0E2
:100CC0008AE00E940C0640911D0650911E0660911C
:100CD0001F067091200623E08BE00E94EC054091F6
:100CE000210650912206609123067091240623E08C
:100CF0008CE00E94EC0560912D06617070E08DE043
:100D00000E940C0660912D0665FB662760F970E075
:100D100084E10E940C0660912D0663FB662760F952
:100D200070E085E10E940C0660912D06629561706D
:100D300070E086E10E940C0660912E0670E087E16B
:100D40000E940C0640912F065091300660913106AA
:100D50007091320623E088E10E94EC054091330651
:100D600050913406609135067091360623E089E192
:100D70000E94EC0560913706709138068AE10E9466
:100D80000C064091390650913A0660913B067091ED
:100D90003C0623E08BE10E94EC0540912506509132
:100DA0002606609127067091280620E08EE10E94B9
:100DB000EC054091290650912A0660912B0670910E
:100DC0002C0620E08FE10E94EC0570E060E080E2FC
:100DD0000E940C0684E6F82E10E0C8EED5E000E094
:100DE000E02EEF0C123011F1133069F11130C9F01F
:100DF000488159816A817B8123E08E2D0E94EC0518
:100E00000F5F2496033061F78AE0F80E1F5F8CE8CD
:100E1000F812E3CFDF91CF911F910F91FF90EF90E8
:100E200008954C855D856E857F85E6CF20E030E0B6
:100E300041E655E4688D798D8A8D9B8D0E948D38B1
:100E4000AB01BC01D9CF4CA15DA16EA17FA17058AF
:100E5000D3CF8DE50E94A7040C94D405CF93DF93E4
:100E6000CDB7DEB72C970FB6F894DEBF0FBECDBF5F
:100E70008FEB91E00E94AD056EEC75E0CE0101961E
:100E80000E949D03CE0101960E94BB058AE30E9449
:100E9000A7048091E0050E9488050E9429072C96EE
:100EA0000FB6F894DEBF0FBECDBFDF91CF9108958E
:100EB0001092C10590912D0697FD03C090E290938A
:100EC000C105882331F08091C10590E28927809384
:100ED000C10508954F925F926F927F928F929F9279
:100EE000AF92BF92CF92DF92EF92FF92CF93DF93B8
:100EF00000D000D0CDB7DEB7E2ECF5E0808591857B
:100F0000A285B38589839A83AB83BC83C080D1805B
:100F1000E280F3804480558066807780C701B60107
:100F2000640D751D861D971D22E0822E912CA12C2B
:100F3000B12CA50194010E944E37A0E0B1E02D93A1
:100F40003D934D935C931397C701B60164197509DE
:100F500086099709A50194010E944E372093040148
:100F600030930501409306015093070189819A81CE
:100F7000AB81BC818093080190930901A0930A0181
:100F8000B0930B010F900F900F900F90DF91CF91C6
:100F9000FF90EF90DF90CF90BF90AF909F908F9099
:100FA0007F906F905F904F900895BF92CF92DF92A5
:100FB000EF92FF920F931F93CF93DF937C01FC017D
:100FC00002A513A5D4A5C5A5818980FF33C0609172
:100FD000E30570E090E080E00E9437392AE037EDC9
:100FE00043E25CE30E94E53A9B01AC01B8018D2F1E
:100FF0009C2F0E94E53A8B01D82FC92F20E030E0CA
:1010000040E85FE3B8018D2F9C2F0E94A53A181687
:1010100024F000E010E0D0E8CFE3B8018D2F9C2F42
:10102000DF91CF911F910F91FF90EF90DF90CF90C4
:10103000BF90089582FD17C06091E20570E090E0D6
:1010400080E00E9437392AE037ED43E25CE30E94FA
:10105000E53A9B01AC01B8018D2F9C2F0E94E53A27
:101060008B01D82FC92FF701B6A0C7A0D0A4F1A437
:1010700098014D2F5C2F6B2D7C2D8D2D9F2D0E9467
:10108000833887FFBBCF0B2D1C2DDD2DCF2DB6CF89
:101090008091BE0590911105981739F02EE2829F3C
:1010A000C00111248F5C9D4F089590E080E0089569
:1010B0000E944808892B19F082E00C945903089586
:1010C0002F923F924F925F926F927F928F929F9258
:1010D000AF92BF92CF92DF92EF92FF920F931F9346
:1010E000CF93DF9300D000D0CDB7DEB700911105CC
:1010F000002309F486C00983398131503983109166
:101100003002131709F466C0C32ED12CEEE23E9FC5
:10111000C00111249C012F5C3D4F7901F9017688B3
:101120008788908CA18C628D738D848D958D9B01A9
:10113000AC010E948E37F701268D378D40A151A159
:101140000E94E53AB62EE72EF82E9B83262F372FE6
:10115000482F592F672D782D892D9A2D0E9483387D
:1011600087FF03C0B72C7401AB828EE28C9DF00127
:101170008D9DF00D1124EF5CFD4F8B2D9E2DAF2D1D
:10118000BB81828B938BA48BB58BF9818F2FF1114F
:1011900001C080E1FF24FA94F80E3090BE051F11C3
:1011A00033C0131102C00E943404EEE21E9FC0013E
:1011B00011248F5C9D4F9A83898333243394310E9D
:1011C000F0E13F1201C0312C8EE2282E031185C0C0
:1011D000109330020F900F900F900F90DF91CF91EE
:1011E0001F910F91FF90EF90DF90CF90BF90AF9045
:1011F0009F908F907F906F905F904F903F902F9037
:10120000089520E1298378CF29818EE2289F9001DB
:1012100011242F5C3D4F3C832B832EE2E22E8F2C3A
:10122000912CFE9CC0011124FC01EF5CFD4FFA8360
:10123000E983F11002C090E1F92EFA94F31002C094
:101240000E943404E89CC001E99C900D11249C018B
:101250002F5C3D4F6901F90146885788608C718C7D
:10126000A301920162897389848995890E948338D8
:10127000882339F1F601628D738D848D958D9B01E4
:10128000AC010E948E37F601268D378D40A151A109
:101290000E94E53AEB81FC81228933894489558992
:1012A0000E948E374B015C01AC019B01C301B2016E
:1012B0000E94A53AF60118165CF4828A938AA48AE1
:1012C000B58A29813A813C832B831F11A8CF6DCF2A
:1012D000428A538A648A758AF4CFC32CD12C329CFB
:1012E000C00111249C012F5C3D4F7901E981FA81F5
:1012F0004288538864887588F90182889388A48815
:10130000B588A5019401C301B2010E94833887FF0B
:1013100026C0E981FA81628D738D848D958D9B0144
:10132000AC010E948E37E981FA81268D378D40A16C
:1013300051A10E94E53AA30192010E948E372B0130
:101340003C01AC019B01C501B4010E94A53A1816ED
:1013500034F4F701428A538A648A758A132D2C9CCF
:10136000F0012D9CF00D1124EF5CFD4F268937898B
:10137000408D518D62897389848995890E94833853
:10138000811101C0132D3394F0E13F1201C0312CC3
:10139000FA82E9821BCFE0E0F1E08CE1DF011D92EF
:1013A0008A95E9F71092BE051092110581E08093AD
:1013B000BD051092300208954F925F926F927F9216
:1013C000AF92BF92CF92DF92EF92FF920F931F9353
:1013D000CF93DF93EC015C012CE0A20EB11C8C01D9
:1013E000C12CD12C7601F8014190519061907190FF
:1013F0008F0120E030E0A901C301B2010E948338CF
:10140000882371F0A3019201C301B2010E94E53A61
:101410009B01AC01C701B6010E948E376B017C01B4
:101420000A151B0501F7C701B6010E94843B6B0139
:101430007C01AC019B0160E070E080E89FE30E94CA
:101440008D382B013C0169917991899199915E01C7
:10145000F4E0AF1AB108A30192010E94E53AF50148
:101460006083718382839383C017D10761F7C701BB
:10147000B601DF91CF911F910F91FF90EF90DF9018
:10148000CF90BF90AF907F906F905F904F900895F6
:101490006091CA057091CB058091CC059091CD05E6
:1014A0000E9437392091F0053091F1054091F20505
:1014B0005091F3050E948D382091690630916A069B
:1014C00040916B0650916C060E948D372DEC3CECE0
:1014D0004CEC5DE30E94A53A87FD04C088E180934F
:1014E000B300089584E1FBCF259A2D98239A83E8D1
:1014F0008093B00087E08093B1000E94480A88E1A1
:101500008093B300089580916F008D7F80936F006A
:1015100080918100887F81608093810010920C020D
:1015200080911B069091DB058F3FA1F42091BF05B0
:10153000211110C0903881F490E0019778F481E097
:1015400090912D0692FF02C091E08927882369F0CF
:10155000289A0895943081F780E0F2CFEFE9FFE018
:101560003197F1F700C00000E8CF289808958091E6
:10157000C00584FD1BC080E10E9459032D9843984B
:101580009091DB05892F8C7221F48091DF058670A4
:1015900069F0943049F48091BF05811103C086E061
:1015A0000E9449030C94830A83E0FACF0895CF93F5
:1015B000DF930E94830AEEE8F5E08BE2DF011D92E3
:1015C0008A95E9F7CDE0D2E083E2FE0111928A9597
:1015D000E9F71092BA051092B9051092120510920F
:1015E000380581E08093130510920C020E94580484
:1015F00080910B028F878BB1837E90910A02892B99
:101600008BB98BB18F7190910B02892B8BB9DF91C4
:10161000CF9108952F923F924F925F926F927F9257
:101620008F929F92AF92BF92CF92DF92EF92FF92F2
:101630000F931F93CF93DF93CDB7DEB7C654D10975
:101640000FB6F894DEBF0FBECDBF2091DF052AA3F1
:1016500020FDCFC624702BAB3091110539AF4EE27F
:10166000349FC0011124DC01AF5CBD4F2396BFAF96
:10167000AEAF2397BAA1B270BCAB4091BE054AAFE2
:101680004F5F4D8F403109F446C74BAF5EE2ABADC3
:101690005A9FC0011124FC01ED5BFD4F2596FFAF61
:1016A000EEAF25979091120580911305981709F4D4
:1016B000A0C68091B9059091BA05892B09F079C02F
:1016C000EBA9EE2309F40FC223962EAD3FAD23976D
:1016D0003093BA052093B9054091B9055091BA05E8
:1016E0005A874987452B09F484C610918F0510FF4E
:1016F00001C210928F051092A1051092A2051092BE
:10170000A3051092A405A985BA855A962D913D91FD
:101710004D915C915D9729833A834B835C8360E0B4
:1017200070E080E09FE30E948D386D837E838F831D
:101730009887E985FA85468C578C60A071A08288CD
:101740009388A488B588FCA9FF2309F4A1C222E0EC
:101750002093A005A50194010E94E53A9B01AC01EC
:10176000C301B2010E948D376B017C0120E030E0A3
:10177000A9010E94833887FF7AC229813A814B816F
:101780005C81CA01B9010E948E37A30192010E94B7
:10179000E53A9B01AC01C501B4010E948D370E945E
:1017A000843B6093AD057093AE058093AF05909335
:1017B000B00580913805482F50E05A8B498B86E060
:1017C000849FF001859FF00D1124EC5EFA4F80910B
:1017D0008E058483A091B905B091BA05BE87AD8707
:1017E0005E96BC91BFA3ED85FE85F78DF8A7AD850C
:1017F000BE859096BC91B9A7ED85FE85F1A1FAA7AB
:1018000020919C0530919D0540919E0550919F052A
:101810006FA178A58B2F9F2F0E948D376DAB7EAB6C
:101820008FAB98AF20E030E0A9010E94833887FF9A
:1018300004C01DAA1EAA1FAA18AE2091A9052D8BAF
:101840003091AA053E8B4091AB054F8B5091AC0572
:10185000588F8091B1058E8F9091B2059F8FA09186
:10186000B305A8A3B091B405B9A3E091A005E98799
:10187000F091B505FBA72091B6052CA73091B705CF
:101880003DA74091B8054EA73090A5052090A6052C
:101890005091A70527965FAF27978091A8052696B8
:1018A0008FAF26979091A1059FA7A091A205A8AB05
:1018B000B091A305B9ABE091A405EAABF091AD05F9
:1018C000FDAF2091AE052EAF3091AF053FAF4091F7
:1018D000B00521964FAF21972BA53CA54DA55EA540
:1018E0006E8D7F8D88A199A10E948338811159C383
:1018F00052E05CAF9FA1998FA8A5AA8FB9A5BB8F15
:10190000EAA5EC8F8EE3C82E83ECD82E8EE2E82E6B
:1019100089E3F82E412C512C3201A70196012BA30B
:101920003CA34DA35EA35985513009F4F7C3AD859F
:10193000BE85513008F46FC3533009F025C45A9660
:101940002D913D914D915C915D97C701B6010E942B
:10195000E53A4B015C012D893E894F89588D632DF5
:10196000722D27968FAD279726969FAD26970E94BA
:101970008D379B01AC01C501B4010E94A53A87FDDA
:101980001AC32E8D3F8D48A159A16FA178A589A5B5
:101990009AA50E948D379B01AC010E948E376B0186
:1019A0007C01232D322D27964FAD279726965FADCC
:1019B00026976D897E898F89988D0E948E379B012D
:1019C000AC01C701B6010E948D386B017C013D88D6
:1019D0002E88BF892796BFAF2797E88D2696EFAF51
:1019E00026970E8D1F8DF8A1F98329A12D8331E053
:1019F0003987A7019601C301B2010E948E372B01DE
:101A00003C012BA13CA14DA15EA10E94833887FF20
:101A10003AC4A30192016BA17CA18DA19EA10E9459
:101A20008D376B017C01980149815D816FA578A993
:101A300089A99AA90E94833887FDB6C23985309357
:101A4000A005832D922D2796AFAD27972696BFAD83
:101A500026978093A5059093A605A093A705B0931C
:101A6000A805209198053091990540919A055091CB
:101A70009B05B80189819D810E94E53A69877A8733
:101A80008B879C870E946C386B017C016091940568
:101A90007091950580919605909197050E946C38FC
:101AA0004B015C01A70196010E948D370E94063907
:101AB0006D877E878F87988BA6E089899A89A89FF2
:101AC000F001A99FF00D1124EC5EFA4F2D853E85A3
:101AD00031832083232B09F0F6C35CA9552309F435
:101AE000F2C38AA183C40E9448089093BA058093E8
:101AF000B905F2CD80918E058F5F853009F480E0C5
:101B000080938E05482F50E091E1949FF001959FBE
:101B1000F00D1124E75CFA4FA985BA8550969C9187
:101B20005097908BE1E18E9FC001112430E020E0BE
:101B3000CD90DD90ED90FD90FC01E20FF31FE75C8E
:101B4000FA4F63E0CC0CDD1CEE1CFF1C6A95D1F74C
:101B5000C082D182E282F3822C5F3F4F2C3031056C
:101B600039F7A985BA851C966D917D918D919C91CF
:101B70001F97B1E1B49F9001B59F300D1124F90179
:101B8000E75CFA4F6B017C0123E0CC0CDD1CEE1C02
:101B9000FF1C2A95D1F7C486D586E686F7860E9473
:101BA00035396093940570939505809396059093CD
:101BB0009705E985FA85268D378D40A151A10E94B0
:101BC0008D389B01AC012093980530939905409383
:101BD0009A0550939B0560E070E080EA9FE30E94C5
:101BE0008D3860939C0570939D0580939E0590931E
:101BF0009F051092900510929105109292051092F7
:101C00009305FCA9F11102C013FF20C06091AD053E
:101C10007091AE058091AF059091B0056093A505D8
:101C20007093A6058093A7059093A8059B01AC012E
:101C30000E94E53AA985BA8552966D937D938D935E
:101C40009C935597177F10938F0555CDE985FA859D
:101C500062897389848995890E94843B6093A50574
:101C60007093A6058093A7059093A80544CDC092D4
:101C7000A105D092A205E092A305F092A4051092CE
:101C8000AD051092AE051092AF051092B00591CD42
:101C90001092A0054092B1055092B2056092B30532
:101CA0007092B4053BA9332309F46AC01092AD05C4
:101CB0001092AE051092AF051092B005C12CD12C38
:101CC000760189859A850E94D5076D877E878F87E3
:101CD000988B9B01AC010E94E53A69877A878B87D4
:101CE0009C87A50194010E94833887FF8BC02985BA
:101CF0003A854B855C85C501B4010E948D372D81E5
:101D00003E814F8158850E94E53A9B01AC01C30199
:101D1000B2010E948D376093B1057093B205809334
:101D2000B3059093B40520E030E0A9010E94833808
:101D300018160CF441C0B2E0B093A00529813A8195
:101D40004B815C81CA01B9010E948E37A3019201C7
:101D50000E94E53A9B01AC01C501B4010E948D3798
:101D60000E94843B6093AD057093AE058093AF05F0
:101D70009093B00580918F05886080938F0519CD71
:101D800049AD5BADC12CD12C7601451741F02596AC
:101D9000AEADBFAD2597CD90DD90ED90FC90C70125
:101DA000B6010E94843B6093AD057093AE058093AD
:101DB000AF059093B00585CFA701960169857A8517
:101DC0008B859C850E948D372D813E814F81588562
:101DD0000E94E53A6093B5057093B6058093B70508
:101DE0009093B8052D853E854F8558892093A90588
:101DF0003093AA054093AB055093AC0533E0309384
:101E0000A005D7CCA7019601C501B4010E948D376A
:101E10002D813E814F8158850E94E53AA3019201B0
:101E20000E948E3720E030E040E05FE30E94E53A18
:101E3000698B7A8B8B8B9C8B20E030E0A9010E9410
:101E4000A53A18160CF094C0A301920169897A8909
:101E50008B899C890E94833887FF88C0A7019601DF
:101E600069857A858B859C850E948D372D813E8181
:101E70004F8158850E94E53A9B01AC012093B5053E
:101E80003093B6054093B7055093B80569897A89B0
:101E90008B899C890E94A53A1816BCF58D859E8574
:101EA000AF85B8898093A9059093AA05A093AB0547
:101EB000B093AC05A501940169857A858B859C85D5
:101EC0000E948338811104C091E09093A00571CCE9
:101ED000A501940169857A858B859C850E948D3743
:101EE0002D813E814F8158850E94E53A9B01AC01CE
:101EF000C301B2010E948D376093B1057093B205A2
:101F00008093B3059093B40554CC29893A894B89C1
:101F10005C892093B1053093B2054093B30550938B
:101F2000B4052093B5053093B6054093B70550939B
:101F3000B80529813A814B815C81CA01B9010E94AF
:101F40008E3729893A894B895C890E94E53AA70135
:101F500096010E948E370E94843B6093A90570937E
:101F6000AA058093AB059093AC0523CC32E047CF14
:101F70008091AD059091AE05A091AF05B091B005EF
:101F80001092B1051092B2051092B3051092B405EB
:101F90008093A9059093AA05A093AB05B093AC05D7
:101FA00008CC81E08CAFA6CC098F1A8F39813B8F8A
:101FB0004D814C8FB8CC20E030E040E05FE3C501BC
:101FC000B4010E94E53A9B01AC01632D722D279666
:101FD0008FAD279726969FAD26970E948D37A70134
:101FE00096010E94E53A9B01AC01698D7A8D8B8D3B
:101FF0009C8D0E948D378B0189839D83A50194015F
:10200000632D722D27968FAD279726969FAD269725
:102010000E948D377AC05A962D913D914D915C91D9
:102020005D97C701B6010E94E53A4B015C0120E0D3
:1020300030E040E05FE30E94E53A232D322D279601
:102040004FAD279726965FAD26970E948E37A70142
:1020500096010E94E53A9B01AC01698D7A8D8B8DCA
:102060009C8D0E948D378B0189839D839B01AC01E0
:102070006E8D7F8D88A199A10E94A53A1816CCF586
:102080002E8D3F8D48A159A16FA178A589A59AA54C
:102090000E948D379B01AC010E948E376B017C0141
:1020A000232D322D27964FAD279726965FAD269785
:1020B0006D897E898F89988D0E948E379B01AC0136
:1020C000C701B6010E948D386B017C013D882E88C6
:1020D000BF892796BFAF2797E88D2696EFAF269743
:1020E000FCADF9870E8D1F8D28A1298339A13D8371
:1020F00080CCA5019401632D722D27968FAD279773
:1021000026969FAD26970E948E37362E272E27962D
:102110008FAF279726969FAF26976BCC2D893E8948
:102120004F89588DC701B6010E94E53A9B01AC0169
:10213000698D7A8D8B8D9C8D0E948D378B01898363
:102140009D832BA53CA54DA55EA50E94833887FFE6
:1021500050CC2BA53CA54DA55EA5698D7A8D8B8DA8
:102160009C8D0E948D372D893E894F89588D0E9404
:102170008D386B017C010BA51CA54DA549835EA57F
:102180005D8382E0898735CC5A962D913D914D91A2
:102190005C915D97C701B6010E94E53A4B015C0175
:1021A000232D322D27964FAD279726965FAD269784
:1021B0000E94833887FF2CC020E030E040E05FE3DE
:1021C000C501B4010E94E53A9B01AC01632D722D5B
:1021D00027968FAD279726969FAD26970E948D371D
:1021E000A70196010E94E53A9B01AC01698D7A8DA9
:1021F0008B8D9C8D0E948D378B0189839D832FA5AC
:1022000038A949A95AA90E94A53A18160CF4F6CE85
:102210002FA538A949A95AA9698D7A8D8B8D9C8DD6
:102220000E948D379B01AC010E948E376B017C01AF
:10223000232D322D27964FAD279726965FAD2697F3
:102240006DAD7EAD8FAD21969FAD21970E948E37EB
:102250009B01AC01C701B6010E948D386B017C0166
:102260003DAC2EACBFAD2796BFAF27972196EFAD03
:1022700021972696EFAF26970FA518A9F9A9F983FC
:102280002AA92D83B6CB2DA93EA94FA958ADB801D7
:1022900089819D810E94A53A18168CF42EE333ECB7
:1022A0004EE259E36BA17CA18DA19EA10E948E37C5
:1022B0006BA37CA38DA39EA3A3019201B0CB498500
:1022C0004093A005BECB209190053091910540919F
:1022D000920550919305C301B2010E948E372B01E4
:1022E0003C0129853A854B855C85C501B4010E9476
:1022F0008D379B01AC01C301B2010E948D384B01A7
:102300005C0120EC31EE44E65EE40E94E53A0E9476
:102310006C380E940639603DA7E07A078105910577
:1023200008F081C046E029893A89429FF001439F25
:10233000F00D1124EC5EFA4F158246E029893A89A6
:10234000429FF001439FF00D1124EC5EFA4F73831E
:10235000628380911305809338058F5F863009F47E
:10236000BBC080931305E091B905F091BA05C8018F
:10237000A981BD81868F978FA0A3B1A3C092940538
:10238000D0929505E0929605F092970529853A85B9
:102390004B855C85C701B6010E948D37A50194016C
:1023A0000E94E53A609390057093910580939205A1
:1023B000909393052091A1053091A2054091A3052A
:1023C0005091A405B80189819D810E9483388111B3
:1023D00069C920E030E0A901B80189819D810E948E
:1023E000A53A18160CF07BC08091DF0581608093C0
:1023F000DF05CA5BDF4F0FB6F894DEBF0FBECDBF5F
:10240000DF91CF911F910F91FF90EF90DF90CF90D0
:10241000BF90AF909F908F907F906F905F904F9004
:102420003F902F900895603A5FE075078105910510
:10243000A0F526E0A989BA892A9FF0012B9FF00D0B
:102440001124EC5EFA4F31E0358346E029893A8960
:10245000429FF001439FF00D1124EC5EFA4F25815D
:10246000022E04C096958795779567950A94D2F7C2
:10247000AD85BE8502C0AA0FBB1F2A95E2F7B183C6
:10248000A08361157105B1E08B07910508F455CF64
:102490008FEF9FEF938382835CCF60344FE17407AB
:1024A0008105910560F426E0A989BA892A9FF00187
:1024B0002B9FF00D1124EC5EFA4F32E0C5CFA6E061
:1024C00049895A89A49FF001A59FF00D1124EC5E63
:1024D000FA4FB3E0B583B9CF1092130544CF9BA94F
:1024E0009111FFCA1092BA051092B905A9ADBAAD03
:1024F000AB1709F4D7C8ED8DE03109F41D8E80913A
:102500003002FAADF81303C02D8D209330023D8DBB
:102510003093BE05B2C81BAEB9C82F923F924F92FE
:102520005F926F927F928F929F92AF92BF92CF9263
:10253000DF92EF92FF920F931F93CF93DF93CDB76C
:10254000DEB7A4970FB6F894DEBF0FBECDBF1091D3
:10255000BF05112349F181E08093DB0583E691E01B
:102560000E94AD05812F0E9488050E94D40585EF49
:1025700091E00197E1F51150123088F488E692E07D
:102580000E94AD0586E592E00E94AD050E942907F4
:1025900080E10E944F038091C00584FFFCCF8FB77C
:1025A000F8941092BF058FBF1091C005112309F454
:1025B00053C214FF23C081E08093DC05A4960FB6BC
:1025C000F894DEBF0FBECDBFDF91CF911F910F9169
:1025D000FF90EF90DF90CF90BF90AF909F908F9043
:1025E0007F906F905F904F903F902F900895EFE90C
:1025F000FFE03197F1F700C00000BBCF10FF8BC0A8
:102600008CE0E2ECF5E0DE01599601900D928A959E
:10261000E1F7BE01675E7F4FCE010D960E949D03DC
:102620008CE30E94A7048091DB05883009F4EDC09B
:1026300008F0C8C0813009F4F1C008F4E1C082306C
:1026400009F4EFC0843009F4E6C080911C06F82F2D
:10265000F1709F2E80FFFAC08091E705882309F46E
:10266000F5C085E891E00E94AD05CE010D960E946F
:10267000BB050E944E02E82E0E942804F82E06B1E7
:1026800000728091C10508278E2D8F29802B59F16A
:1026900089E791E00E94AD05002319F080E50E94D2
:1026A000A704EE2079F0E0FE03C088E50E94A704AD
:1026B000E1FE03C089E50E94A704E2FE03C08AE5AB
:1026C0000E94A704FF2079F0F0FE03C082E50E947B
:1026D000A704F1FE03C088E40E94A704F2FE03C031
:1026E00083E50E94A7048091E705882309F4FDC0D3
:1026F00081508093E7050091E605002309F40EC19F
:1027000001500093E6058EE30E94A7040E94D405C1
:1027100081E00E944F03812F887E09F44DC1809192
:10272000DB05982F937009F036C18872A9F080916B
:10273000DD05807C89F40E94340482E08093DF050B
:102740008091DB05803241F480E217FD0CC080915E
:10275000DD0580688093DD058091DB05811103C074
:1027600091E09093DD0516FF07C085FD05C09091AF
:10277000DD0590649093DD0513FF05C0807E19F49C
:1027800080E18093DB0515FF06C188E692E00E9498
:10279000AD0584E192E00E94AD050E942907809179
:1027A000DD0587FDF3C09091DB05903409F0EBC0A7
:1027B00083FF04C0837E82608093DD0580E4809384
:1027C000DB05E4C0803221F198F4803109F03DCF7F
:1027D0008091DD0587FD1CC08DEA91E00E94AD056A
:1027E0008091DD0580FF2EC080E30E94A7042DCFDD
:1027F0008034D1F0803809F028CF8CE891E002C015
:1028000087EB91E00E94AD0520CF83EB91E0FACFFA
:1028100089EA91E0F7CF84EA91E0F4CF8EE991E084
:10282000F1CF88E991E0EECF82E991E00E94AD0519
:102830008091DD0583FF02C083E3D7CF82FF04C010
:1028400085FFD2CF81E3D1CF82E3CFCF409079060D
:1028500050907A0660907B0670907C0651E6A52E1B
:1028600056E0B52E9E012F5F3F4F6901CE010D96B8
:102870007C0100E0F50161917191819191915F017D
:1028800020853185428553850E948E37F6016193FC
:102890007193819391936F01023041F4A3019201EE
:1028A0000E948E3769877A878B879C87911012C028
:1028B000F60134972081318142815381F701608193
:1028C0007181828193810E948D37F70160837183CA
:1028D000828393830F5FF4E0EF0EF11C033051F617
:1028E0009110BFCE8EE791E0BECE8091DB058C7754
:1028F00099F08DE18093E7058091E605811103C091
:1029000081E08093E60583E791E00E94AD05CE016A
:1029100001960E94BB05EFCE89E0ECCF8091DB05EC
:102920008C7779F183E18093E6058EE691E00E9451
:10293000AD058091E2050E9488058CE20E94A70403
:102940008091E3050E9488058CE20E94A704809193
:10295000E4050E94880585B18072F82E439BB2C1C0
:1029600001E08AE691E00E94AD05FF2019F083E5C1
:102970000E94A704002309F4C6CE86E40E94A7049F
:10298000C2CE89E0D0CF903809F018CF8091DD0514
:1029900080628093DD0517FF0CC08091DB058130DC
:1029A00029F48091DD0585608093DD0580E88093C2
:1029B000DB0588EE0E944F0311FF28C0812F887627
:1029C00011F58091DB05803441F48091DD0585FDB2
:1029D00004C084FFDFC01092DB058091DB058823F3
:1029E00009F4DEC084FF0FC09091DD0590FF0BC09D
:1029F000803109F0D5C08091E505882309F4D0C065
:102A000088608093E50582E00E944F0312FF24C096
:102A10009091DD058091DB05807D09F4DAC080911D
:102A2000DE058111D6C097FDD6C00E943404809186
:102A3000BE05809330020E9460088091DF0581FF0F
:102A400005C09091DD0591609093DD05897F8093AD
:102A5000DF0584E00E944F039091BB05992309F4A0
:102A60004CC08FB7F8941092BB058FBF4091E20520
:102A7000842F90FD84E691FD865F92FD8A5093FD40
:102A80008F5F94FD8150893C08F088EC8A3008F40F
:102A90008AE03091E305232F95FD24E696FD22E39D
:102AA00097FD29E1481302C0231739F18093E2050D
:102AB0002093E3051092E6057090BE056090110525
:102AC000172D89E9282E96E7392E26E9422E3EE772
:102AD000532E4EE2842E161199C0C101D20180936B
:102AE000180190931901A0931A01B0931B010E9441
:102AF0003404709230020E9460089091BC059923C2
:102B000009F440C08FB7F8941092BC058FBF209194
:102B1000E405822F90FD84E691FD865F92FD8A5048
:102B200093FD8F5F94FD8150893C08F088EC8A30DA
:102B300008F48AE0281749F02091DF0528602093E7
:102B4000DF058093E4051092E6058091DB0595FF93
:102B500009C0803139F42091E5052111ADC022E092
:102B60002093E505907C71F0882311F0887151F075
:102B70001091450616FFA4C01F7B812F0E942903D8
:102B8000109345068091DB058C7F09F417CD0E94D8
:102B90000A0B14CD82FF21CF88608093DD051DCF05
:102BA0001092DF050E944808892B71F08091DD05A5
:102BB00086FD0AC01092DD0588E08093DB050E9447
:102BC0000A0B0E9475041FCF1092DD051092DB05E1
:102BD0001ACF97FF0AC01092DF050E94CB090E940E
:102BE000D70A0E9422040E946A078091DD0585FFB2
:102BF00008C08F7781608093DD0580E48093DB05DA
:102C000028CF1092DD051092DB0523CFA12EB12C29
:102C1000189DC00111248F5C9D4F0E94D507962EF0
:102C2000C72ED82E092F9101A2010E94A53A8A9C95
:102C300070018B9CF00C112497012F5C3D4F7901A2
:102C400018168CF59101A201B101C2010E94E53A6A
:102C5000F701668B778B808F918F8A9CC0018B9C4C
:102C6000900D11249C012F5C3D4F7901F90122A0A8
:102C700033A044A055A0A201910166897789808D77
:102C8000918D0E94A53A18162CF4F701268A378AEE
:102C9000408E518E1F5F103109F410E0292C3C2C1E
:102CA0004D2C502E18CF292D3C2D4D2D502F692DF8
:102CB0007C2D8D2D902FCACF20FF54CF246050CF74
:102CC00010645BCF882309F41ECD4BCE1F93CF93A6
:102CD000DF930E948D128091DD05882309F44DC099
:102CE0000E944808009759F4809146069091450645
:102CF000892BD82FD07311E0C82FC07421C0FC01DC
:102D00008189F7CF9091DC05911137C080FF16C003
:102D10009091DB05292F207C09F476C082FD15C037
:102D20001092E50580E00E948E0480E00E94290355
:102D30008091DD058D7F84608093DD050E948D127A
:102D40008091DD058111DECF18C09038E9F488E666
:102D500092E00E94AD0581ED91E00E94AD050E94D8
:102D6000290780E00E948E0480E00E9429030E94CF
:102D7000830A8091DC05882321F0DF91CF911F9198
:102D800008950E948D12F5CF903419F48F7D8093B1
:102D9000DD058091DD0583FFD1CF90914606992313
:102DA00059F081FD09C080912D0681FF22C08091DC
:102DB000DF0588608093DF0580914506882371F0E8
:102DC0008091DD0581FD0AC08C2F0E94290341E01E
:102DD00060E070E080E89FE30E9449178091DD0584
:102DE00081FDACCF80618093DD0582E00E945903B4
:102DF000A5CF8D2F0E948E0441E060E070E080E856
:102E000090E40E944917D8CF8091E5058823A1F16D
:102E100081FF0AC080914606882339F180E00E9434
:102E20008E041093E5058ACF8C7009F487CF8091CA
:102E30004606882399F088E692E00E94AD058AED67
:102E400091E00E94AD050E94290780912D0681FF27
:102E50000FC08091DF0588608093DF058091E505D4
:102E600083FF03C082E00E9459031092E50566CFFC
:102E70008D2F0E948E04F2CF8091DF0583FF5ECFFD
:102E80008D2F0E948E048091DF05877F8093DF0560
:102E900055CF1F93CF93DF93142F20E030E040EA0B
:102EA00051E40E94E53A0E946C380E940639EB0119
:102EB0002097C9F08091DC05811115C011110DC05A
:102EC0000E9466162FEF80E792E0215080409040EC
:102ED000E1F700C000002197EBCF0E948D12809196
:102EE000DD0581FFEFCFDF91CF911F9108950E9403
:102EF00058080E9466168091DC05811108C00E9466
:102F00004808892BB1F78091DB05883091F308954B
:102F1000CF93DF9391E5899FE0011124DD5F40E5C8
:102F200050E0BE0187EB96E00E94E702892B79F41E
:102F30001092B7060E94771740E550E067EB76E005
:102F4000CE010E94A40280E0DF91CF91089581E03C
:102F5000FBCF0E9477171092E7050895CF939091C9
:102F6000DB05923039F0C82F0E9477178C2FCF9154
:102F70000C948E04CF9108950F931F93CF93C82F75
:102F80008B010E9477172DE0C29FC00111244CE0F5
:102F900050E0B8019E5FCF911F910F910C94A40255
:102FA0001F93CF93DF93182FEB018DE0189FB00193
:102FB00011247E5F4CE050E0CE010E94E702892B95
:102FC00071F48CE0FE0111928A95E9F7BE01812F20
:102FD0000E94BC1780E0DF91CF911F91089581E09E
:102FE000FACFEF92FF920F931F93CF93DF93CDB75A
:102FF000DEB72C970FB6F894DEBF0FBECDBF182FEB
:1030000080FFD5C08AE08093180689E180931B0673
:103010001092190610921A0681E080931C068AE02D
:1030200097EDA3E2BCE380931D0690931E06A09348
:103030001F06B09320068FE692E1A3E0BBE38093E6
:10304000210690932206A0932306B093240680E0E5
:1030500090E0AAE7B4E48093250690932606A09317
:103060002706B09328061092290610922A0610927D
:103070002B0610922C0610922E0680E090E0A8EC11
:10308000B1E480932F0690933006A0933106B0935D
:10309000320680E090E0AAEFB3E480933306909389
:1030A0003406A0933506B09336062AEF30E030930D
:1030B00038062093370640E050E060E87FE3409315
:1030C000390650933A0660933B0670933C06109283
:1030D0002D0640E050E06AE773E44093E805509322
:1030E000E9056093EA057093EB054093EC05509376
:1030F000ED056093EE057093EF054093F005509356
:10310000F1056093F2057093F3058093F4059093B5
:10311000F505A093F605B093F7058093F805909315
:10312000F905A093FA05B093FB058093FC059093F5
:10313000FD05A093FE05B093FF0580E090EAACE0AA
:10314000B7E48093000690930106A0930206B09323
:1031500003068093040690930506A0930606B09399
:1031600007068093080690930906A0930A06B09379
:103170000B0680E090E0A8E4B3EC80930C069093FB
:103180000D06A0930E06B0930F0680931006909341
:103190001106A0931206B093130680931406909321
:1031A0001506A0931606B09317060E949A0411FF05
:1031B00010C0CE0101967C018CE0F70111928A9536
:1031C000E9F700E0B701802F0E94BC170F5F0830BD
:1031D000C9F712FF14C060E080E093E00E9484020F
:1031E00060E081E093E00E94840260E081E593E08A
:1031F0000E94840260E082E593E00E94840213FF53
:103200000AC060E08EEA93E00E94840260E08FEAE8
:1032100093E00E9484022C960FB6F894DEBF0FBE96
:10322000CDBFDF91CF911F910F91FF90EF90089547
:103230002F923F924F925F926F927F928F929F92C6
:10324000AF92BF92CF92DF92EF92FF920F931F93B4
:10325000CF93DF93CDB7DEB7CA54D1090FB6F89438
:10326000DEBF0FBECDBF98A38F8F7CAF6BAF4090FA
:1032700011054D8E242C312C8EE2489E9001112494
:10328000A9014F5C5D4F5EA34DA3DA011D928A95A3
:10329000E9F7FB018085DA0151968C9381FF66C2C4
:1032A000C090C205D090C305E090C405F090C5055C
:1032B0004090C6055090C7056090C8057090C9053C
:1032C000498E5A8E6B8E7C8EC301B2016C0D7D1DB2
:1032D0008E1D9F1D22E0822E912CA12CB12CA501C8
:1032E00094010E944E3729013A01C701B601298D88
:1032F0003A8D4B8D5C8D621B730B840B950BA50176
:1033000094010E944E3769017A018090CA0590901D
:10331000CB05A090CC05B090CD054091E80550912B
:10332000E9056091EA057091EB0549A35AA36BA3E7
:103330007CA3AF8DB8A12D913D914D915C9169A178
:103340007AA18BA19CA10E94E53A0E94B23A2196F3
:103350006CAF7DAF8EAF9FAF21972091EC05309180
:10336000ED054091EE055091EF052BA73CA74DA729
:103370005EA7AF8DB8A114962D913D914D915C91B2
:1033800017976BA57CA58DA59EA50E94E53A0E9486
:10339000B23A6FA378A789A79AA721968CAD9DAD65
:1033A000AEADBFAD219784199509A609B7090FA144
:1033B00018A529A53AA50C191D092E093F094EE2A9
:1033C000429DF001439DF00D1124EF5CFD4FAC01D7
:1033D000BD01400F511F621F731F77FF07C070951B
:1033E0006095509541955F4F6F4F7F4F408351835C
:1033F000628373834EE2429DF001439DF00D1124E0
:10340000EF5CFD4FAC01BD01401B510B620B730B18
:1034100077FF07C070956095509541955F4F6F4F4E
:103420007F4F44835583668377834090F0055090A7
:10343000F1056090F2057090F3054FAA58AE69AEA1
:103440007AAE6DA07EA07EAA6DAA9E01235F3F4F3B
:103450003A8F298F3CAB2BAB10E04EE2429D90019E
:10346000439D300D11242F5C3D4FA901445F5F4FF8
:1034700023965FAF4EAF2397AC01BD014FA058A478
:1034800069A47AA444195509660977092A013B0100
:103490004C0C5D1C6E1C7F1C29964CAE5DAE6EAE56
:1034A0007FAE29974FA058A469A47AA4840D951DD6
:1034B000A61DB71D2C013D014C185D086E087F0844
:1034C000A901405F5F4F25965FAF4EAF2597B901C9
:1034D000685F7F4F2B967FAF6EAF2B97EDA9FEA94C
:1034E00081919191A191B191FEABEDAB2396EEAD9F
:1034F000FFAD2397C080D180E280F380C816D90643
:10350000EA06FB0610F46C017D012396AEADBFAD5B
:103510002397CD92DD92ED92FC92139711116EC11B
:10352000C301B2010E94373929A13AA14BA15CA184
:103530000E948D38EBA9FCA96193719381939193BB
:10354000FCABEBAB20E030E0A9010E94833887FFA1
:103550000EC090E2112321F090E4113009F090E8C0
:103560002596AEADBFAD25978C91892B8C931F5FAF
:10357000133009F014C180E0CD28CE28CF2809F4FB
:10358000DBC0CE010D960E94DC094B015C018EE28E
:10359000829D8001839D100D11240F5C1D4FF80149
:1035A000868E978EA0A2B1A2BE01635F7F4F80E09E
:1035B00096E00E94F801D8015A966D937D938D9301
:1035C0009C935D97BE01635F7F4F84EF95E00E94FF
:1035D000F801F80166A377A380A791A7F188F0FE10
:1035E0002BC162A773A784A795A78091BE054D8CB8
:1035F000481611F0F1FE3AC18EE2829DF001839DE2
:10360000F00D1124EF5CFD4F128A138A148A158A7B
:1036100012A213A214A215A28EE2829D8001839DA4
:10362000100D11240F5C1D4FD80151968C9181FD16
:1036300082C08DA19EA10E94D5076B017C014090A4
:1036400018015090190160901A0170901B01AC0193
:103650009B01C301B2010E94833887FFCFC1A30140
:103660009201C301B2010E94E53AF801668B778BA3
:10367000808F918F8EE2829D8001839D100D112499
:103680000F5C1D4FF80142A053A064A075A0A301D8
:10369000920166897789808D918D0E94A53A1816CE
:1036A0003CF4D80156964D925D926D927C9259975A
:1036B000C0921801D0921901E0921A01F0921B01F8
:1036C0008CE0FE013D96ACE0B1E001900D928A9550
:1036D000E1F721964CAC5DAC6EAC7FAC219740928B
:1036E00000015092010160920201709203014FA00B
:1036F00058A469A47AA440920401509205016092F2
:103700000601709207014FA458A869A87AA84092B0
:1037100008015092090160920A0170920B01809198
:10372000BD05809311058F5F803109F480E080939F
:10373000BD050E94600881E0C65BDF4F0FB6F894BC
:10374000DEBF0FBECDBFDF91CF911F910F91FF90D4
:10375000EF90DF90CF90BF90AF909F908F907F9031
:103760006F905F904F903F902F9008954090000190
:10377000509001016090020170900301C09004011B
:10378000D0900501E0900601F090070180900801BB
:1037900090900901A0900A01B0900B01BECD1230AB
:1037A00009F09CCEAF8DB8A118962D913D914D9109
:1037B0005C911B976FA978AD89AD9AAD0E94E53AEF
:1037C0000E94B23A6FA778AB89AB9AABDC01CB0110
:1037D00088199909AA09BB09B7FF07C0B095A09538
:1037E000909581959F4FAF4FBF4F2B96EEADFFAD9C
:1037F0002B9780839183A283B38370CE113069F4B9
:1038000029966CAD7DAD8EAD9FAD29970E9437395D
:103810002BA53CA54DA55EA58BCE6FA578A989A942
:103820009AA9681979098A099B090E9437392FA931
:1038300038AD49AD5AAD7CCEEBADFCAD20813181C8
:1038400042815381F3FC08C0D8019A962D933D9391
:103850004D935C939D97C9CEC501B4010E94E53A92
:10386000F80162A773A784A795A7BFCE2CE031E02B
:103870003E8F2D8F8E010F5F1F4F498D5A8D445FF4
:103880005F4F5CA74BA7C12CD12C76010F8F19A3DA
:10389000AD8DBE8D8D909D90AD90BD90BE8FAD8F46
:1038A000E98DFA8D4190519061907190FA8FE98F76
:1038B000A3019201C501B4010E94E53A9B01AC014C
:1038C000C701B6010E948D376B017C01A5019401EF
:1038D000C301B2010E948D37D8016D937D938D9302
:1038E0009D938D014BA45CA4698C7A8C461457047B
:1038F00079F62FEE3FEF4FE75FE3C701B6010E9475
:10390000A53A18164CF48EE2829DF001839DF00DCD
:103910001124EF5CFD4F7CCE2FEE3FEF4FE75FEBC6
:10392000C701B6010E94833887FF11C08EE2829DD5
:10393000F001839DF00D1124EF5CFD4F89E996E7BE
:10394000A6E9BEE782A393A3A4A3B5A365CE8F8DFA
:1039500099A10E94DC096F8D79A180E096E00E9418
:10396000F8012B013C01A701960160E070E080E8BE
:103970009FE30E948D3720E030E040E05FE30E944B
:10398000E53A0E94843B6B017C0120911D06309139
:103990001E0640911F0650912006C301B2010E94ED
:1039A000E53AA70196010E94E53A4B015C01A701A7
:1039B000960160E070E080E89FE30E948D379B01F4
:1039C000AC01C501B4010E948D386B017C0120E07F
:1039D00030E0A9010E94833887FF03C0C12CD12C9D
:1039E00076018EE2829DF001839DF00D1124EF5C43
:1039F000FD4FC2A2D3A2E4A2F5A20ECEA70196016A
:103A0000C701B6010E94E53AD80156966D937D93A1
:103A10008D939C9359972ECEFF920F931F93CF9324
:103A2000DF938C01EB0180912D0685FF23C0F09080
:103A3000DB0580E2F81611F1C8010E9462038823B9
:103A4000C9F081E08093DE0588E0F8120CC00E9486
:103A500059030E9466168091DC0581110BC080918C
:103A6000DB058111F6CF0E94B70A82E00E9449036C
:103A70000E9466168091DB05823021F10E94661655
:103A80008091DC0581111EC09091BE058091BD051D
:103A9000981303C00E945808F1CFBE01C8010E94CC
:103AA000181981110FC080912D0681FF0BC08885E8
:103AB00084FF08C080E1DF91CF911F910F91FF90AB
:103AC0000C94AE17DF91CF911F910F91FF90089545
:103AD0002F923F924F925F926F927F928F929F921E
:103AE000AF92BF92CF92DF92EF92FF920F931F930C
:103AF000CF93DF93CDB7DEB7CC54D1090FB6F8948E
:103B0000DEBF0FBECDBFEDE7F6E08AE3DF011D9219
:103B10008A95E9F78BE0EDE3F6E0AEE7B6E00190D9
:103B20000D928A95E1F78091B7068432A1F01A8E42
:103B30001BA2312C212C1EA61DA610E01B8E1F8E51
:103B4000EE24E394F12CAAE0AA2EB12CB1E68B2E40
:103B5000B3E09B2E4EC181E080937E0610927F06DB
:103B600083E08A8FB1E0BBA3E4CF9FEB9D0D9A3138
:103B700010F00C94E52A8F5F8A8FBE016A5E7F4F3A
:103B8000CE014A960E944B01882311F40C94E82A36
:103B90004E885F88688C798CC301B2010E94C83B53
:103BA0000E940639062F70E090E080E00E943739CD
:103BB0009B01AC01C301B2010E948D3720E030E0CF
:103BC00048EC52E40E94E53A0E94523B0E940639BA
:103BD000CB01E7E4DE1629F1FDE4DF1609F465C147
:103BE000EAEBED0DE53108F02CC00E2E000CFF0BBA
:103BF000E450F24E0C946D379C1F211E211EC91FEC
:103C0000D41FDF1FEA1F211EEE1F211EFC1F211ED5
:103C1000062010201A20211E211E211E2A203720B6
:103C20004420083209F4DDC030F5043160F401317C
:103C300008F098C0043009F474C0B0F00A3009F4F8
:103C400068C084E196C00C3109F463C040F40631C9
:103C5000C0F725E1201B2093800626E087C00E31A7
:103C600009F457C0063269F74F8D41110C94EB2AC5
:103C7000A2E0AF8F28C00D3309F4AEC0E0F40533E5
:103C800009F44FC088F40B3211F00133D1F6BF8D27
:103C9000B1110C94EB2A013309F095C01092830600
:103CA000E3E0EF8F28E04FC00C3358F60653009343
:103CB000840629E05BC00C3508F50A3508F073C0AE
:103CC000003509F0BECF00937E0621E0063209F0F0
:103CD0004DC08431910551F08E31910539F0883213
:103CE000910521F08233910509F0ABCFB5010E9417
:103CF0001837665760937E0621E025C00C3549F0E1
:103D00000F3508F09ECF2EE5201B20937F0625E07F
:103D10002DC0009731F42F8D21110C94EB2A31E046
:103D20003F8F00937D06202F2D7F2C3119F020E04E
:103D30000C35E1F4009719F00A9709F082CF600F73
:103D400060937D0620E0C70102C0880F991F2A9565
:103D5000E2F72DA53EA528233923232B09F443C0E0
:103D600085E107C001510093820622E0892B59F3B7
:103D700087E1C45BDF4F0FB6F894DEBF0FBECDBF47
:103D8000DF91CF911F910F91FF90EF90DF90CF9037
:103D9000BF90AF909F908F907F906F905F904F906B
:103DA0003F902F900895892B29F40A55009381069E
:103DB00023E0C9CF6A30710509F043CF0A3509F411
:103DC00040CF24E0C0CF0A9709F03BCFF1E0F09359
:103DD000830623E02F8F66CF892B09F032CF2AE0AC
:103DE000B2CF27E0C3CFADA5BEA5A82BB92BBEA7E8
:103DF000ADA78A8DE82FF0E0E954F94FD080D110BB
:103E0000B4CEBB8DBB2329F0EF8DE11102C0F2E0EF
:103E1000FF8F25FE0FC080919A0690919B06A0917E
:103E20009C06B0919D0681389649A849B10514F0C9
:103E30000C94F72A3BA1332309F433C120FE43C17C
:103E4000809180068130B1F423E333E34BEC51E4FD
:103E50006091890670918A0680918B0690918C06FC
:103E60000E94E53A6093890670938A0680938B06D8
:103E700090938C0630FC10C08091480690914906C2
:103E8000A0914A06B0914B068093A6069093A70690
:103E9000A093A806B093A90680917D06843009F00E
:103EA0002DC126FC29C18CE164CF892B09F060CF9C
:103EB000063050F4033098F00430D9F080E105303A
:103EC000C9F41092870618C0083008F4BACE0A3038
:103ED00048F10E3109F0B5CE0093850604C00023E9
:103EE00021F00130C9F78BE008C0B3E0B09385063C
:103EF000FACF80E2809387068CE0F70102C0EE0FD4
:103F0000FF1F8A95E2F7CF012DA53EA52E23392369
:103F1000232B09F025CF2DA53EA52E2B392B3EA70F
:103F20002DA767CF093029F080E4809386068DE0C5
:103F3000E4CF10928606FBCF4092890650928A0603
:103F400060928B0670928C0680E06701082E02C09A
:103F5000CC0CDD1C0A94E2F7960122213321232B9D
:103F600011F00C94F12AD40102C0B595A7958A9559
:103F7000E2F7A0FF0BC020E030E0A901C301B201CD
:103F80000E94833887FF02C00C94F42A2C283D2815
:103F900030CF40928D0650928E0660928F067092BE
:103FA0009006116081E0D1CF409291065092920626
:103FB0006092930670929406126082E0C6CF40929F
:103FC0009506509296066092970670929806146035
:103FD00083E0BBCF0093990684E0B7CFC301B20161
:103FE0000E94FF3860939A0670939B0680939C060C
:103FF00090939D0685E0A9CF40929E0650929F0621
:104000006092A0067092A10686E09FCF4092A20621
:104010005092A3066092A4067092A50687E095CF01
:104020004092A6065092A7066092A8067092A90632
:1040300088E08BCF20E030E04FE753E4C301B201CA
:104040000E94A53A181614F40C94EE2A0093AA06BE
:1040500089E07BCF4092AB065092AC066092AD06F1
:104060007092AE063B8D31603B8F8AE06ECF4092FE
:10407000AF065092B0066092B1067092B2064B8DB8
:1040800042604B8F8BE061CF4092B3065092B406F2
:104090006092B5067092B6068B8D84608B8F8CE033
:1040A00054CF80917F06813081F44F8D423009F0EA
:1040B000E1CE80917E06803509F4DCCE882309F4B8
:1040C000D9CE20FCD7CE86E154CE80913E06811118
:1040D000D1CE20FCB5CE80914C0690914D06A0919A
:1040E0004E06B0914F068093890690938A06A0935E
:1040F0008B06B0938C06BECEE89426F8809182069B
:10410000882359F0813009F4BBC022961FAE229754
:10411000A2E0ABAFB1E0B9AF07C082E022968FAFAB
:10412000229791E09BAF19AE80918006813071F5A6
:10413000EDE7CE2EE6E0DE2EF12CE12C2B8DA22E2B
:10414000B12CC5010E2C02C0959587950A94E2F713
:1041500080FF12C023E333E34BEC51E4D6019E967B
:104160006D917D918D919C91D1970E94E53AF601D8
:1041700066A777A780AB91ABFFEFEF1AFF0A24E0A9
:10418000C20ED11C33E0E316F104D9F64F8D433053
:1041900049F480918306813029F48B8D843011F0AD
:1041A0000C94FA2A8CE0E1E6F6E0DE01119601902B
:1041B0000D928A95E1F7ADA5BEA5B1FD69C000914C
:1041C0007D060A3009F478C00C3509F419C19F8DB9
:1041D000933009F43FC0AB8DAA23E1F1B091810681
:1041E000BFA38091790690917A06A0917B06B09149
:1041F0007C0689A79AA7ABA7BCA79DE3A92E96E04A
:10420000B92E2DE7C22E26E0D22EF12CE12C9B8D6B
:10421000892E912CC4010E2C02C0959587950A9485
:10422000E2F780FD5DC1F501808D918DA28DB38D8A
:10423000F60186A797A7A0ABB1ABFFEFEF1AFF0A75
:1042400024E0A20EB11C34E0C30ED11C43E0E416FE
:10425000F10401F70E3109F494C1053309F4B8C132
:104260006DE876E086E00C3109F02DC10E94D01790
:10427000882301F18B8D811188C119A61F8EA9C0D9
:10428000E1E02296EFAF22971BAEF2E0F9AF4CCF00
:1042900080918406873010F08DE16BCD90914306BC
:1042A000891709F48CCFBE016F5F7F4F0E94D01732
:1042B000811185CF87E05DCDBB8DB11102C08AE150
:1042C00058CDC10180759927892B09F4ECCD6091F7
:1042D0009E0670919F068091A0069091A1060E9473
:1042E000C83B0E9406396730B8F680919906843140
:1042F00029F0823009F0A5CC27FCA3CC662309F471
:1043000074C0615069A76DE876E089A50E94D01756
:10431000882381F2009199064090790650907A06A0
:1043200060907B0670907C067DE7C72E76E0D72EE6
:10433000F12CE12C3B8D232F30E038A72FA38FA148
:1043400098A50E2C02C0959587950A94E2F780FFF8
:1043500033C0D6019E968D909D90AD90BC90D19724
:10436000043109F046C0F701EE0FFF1FEE0FFF1FEB
:10437000E35CF94F20A931A942A953A9608D718D41
:10438000828D938D0E948D37A50194010E948D37F7
:10439000F601608B718B828B938BF2E0EF120CC075
:1043A000A30192010E948D37609395067093960643
:1043B0008093970690939806BFEFEB1AFB0AE4E010
:1043C000CE0ED11CF3E0EF16F10409F0B8CF2FEABE
:1043D000222280917E068FA3803509F000C19B8D3B
:1043E000992309F406C18FE1C4CCE0918406E9A7C2
:1043F0008ACF50968D929D92AD92BC925397DCCF0E
:104400003B8D332309F45BCF4090790650907A06B8
:1044100060907B0670907C064DE3842E46E0942EDF
:10442000CE0101967C015DE7A52E56E0B52ED12C7C
:10443000C12CA32FB0E0B8A7AFA38FA198A50C2CD7
:1044400002C0959587950A94E2F780FF3EC0F70178
:104450002081318142815381D40158966D917D91A3
:104460008D919C915B970E948D37F50126A537A50C
:1044700040A951A90E948D37D5019E966D937D93D9
:104480008D939C93D197B2E0CB120CC0A301920103
:104490000E948D376093B3067093B4068093B5067F
:1044A0009093B606FFEFCF1ADF0A24E0820E911C2C
:1044B00034E0E30EF11C44E0A40EB11C83E0C81606
:1044C000D10409F0BACF19A684CFF40180A991A92B
:1044D000A2A9B3A9F50186A797A7A0ABB1ABE2CF7C
:1044E000053309F4AACED6019E964D905D906D904D
:1044F0007C90D197BFA1B11133C0F701EE0FFF1F20
:10450000EE0FFF1F21E030E02C0F3D1FE20FF31FE5
:10451000D501D0962D913D914D915C91D3976081BD
:104520007181828193810E948E37A30192010E9442
:104530008E37F60166A777A780AB91ABF2E0EF125A
:104540007CCE29A53AA54BA55CA50E948E37609329
:10455000B3067093B4068093B5069093B6066DCEFD
:10456000A3019201D50158966D917D918D919C91F9
:104570005B970E948E37F60166A777A780AB91AB59
:104580005CCE6DE876E087E071CEADE3B6E0EDE7B6
:10459000F6E090E080E04B8D242F30E0A901082E5A
:1045A00002C0559547950A94E2F740FD0AC0589617
:1045B0004D915D916D917C915B97408B518B628B9E
:1045C000738B0196149634968330910539F77BCF1F
:1045D00080917E06823008F476CF8EE1CACBAF8D13
:1045E000A23039F4BFA1B11171C0EB8DEE2309F4F3
:1045F0008BC02BA12170EBA1C101E0FFD6C28E7D43
:10460000FF8DF111937E892B11F00C94032B8E01F9
:10461000035F1F4F89E0D8011D928A95E9F7222395
:1046200009F4C6C28DA59EA5867B892B09F0EEC72D
:1046300080917D06853311F08111E8C7809148068D
:1046400090914906A0914A06B0914B06898B9A8BAE
:10465000AB8BBC8B8091460690914506892B40918F
:10466000890650918A0660918B0670918C064D8761
:104670005E876F87788B84608D8B80912D0685FF98
:1046800006C08BEA96E00E9462038111C2C7B8019E
:104690008BEA96E00E940C1D8091DB0581110BC016
:1046A0000E944808892B39F080E28093DB050E9444
:1046B0000A0B0E9475048CE0EBEAF6E0A5E5B6E093
:1046C00001900D928A95E1F780E053CB20E030E035
:1046D000A9016091890670918A0680918B0690915C
:1046E0008C060E948338882309F4EDCCFFA1FC38A6
:1046F000B9F060F4F23059F1F33061F1F13009F0C2
:1047000078CF3B8D311175CF1F8E73CF2FA12E38EF
:1047100039F018F02F3809F06CCF9BA190619BA362
:104720008FA18E58823018F4ABA1A860ABA3BB8DCB
:10473000BB2309F4C4CD4CE050E06BEA76E085E59C
:1047400096E00E94EE3B892B09F053CF6DC04BA140
:1047500044604BA38B8D882309F4B1CDB9ADAB2F49
:10476000B0E0BAABA9ABFBADEF2FF0E0FEABEDAB29
:1047700081E090E07C0109AC02C0EE0CFF1C0A94C1
:10478000E2F70BAC02C0880F991F0A94E2F7E82AFF
:10479000F92A2B8D822F90E08E219F21892B09F4FD
:1047A0002CC7FD01EE0FFF1FEE0FFF1FE358F94F5F
:1047B000AA0FBB1FAA0FBB1FAB5AB94F2D913D913A
:1047C0004D915C9166A577A580A991A90E948D372E
:1047D0002B013C01EDA9FEA9EE0FFF1FEE0FFF1FFD
:1047E000E358F94FADA9BEA9AA0FBB1FAA0FBB1F63
:1047F000AB5AB94F2D913D914D915C9166A577A52E
:1048000080A991A90E948D374B015C0127FEFFC052
:10481000E89427F84CE050E06BEA76E085E596E016
:104820000E94EE3B892B11F481E2A3CA6091A2069B
:104830007091A3068091A4069091A5062091800610
:10484000213071F423E333E34BEC51E40E94E53A69
:104850006093A2067093A3068093A4069093A50686
:104860008091A2069091A306A091A406B091A506FE
:1048700021968CAF9DAFAEAFBFAF2197A301920140
:10488000C301B2010E94E53A29966CAF7DAF8EAFAD
:104890009FAF2997A5019401C501B4010E94E53A93
:1048A0002D966CAF7DAF8EAF9FAF2D9720E030E09F
:1048B00040E850E421966CAD7DAD8EAD9FAD219763
:1048C0000E94E53A21962CAD3DAD4EAD5FAD2197EE
:1048D0000E94E53A29962CAD3DAD4EAD5FAD2997CE
:1048E0000E948D372D962CAD3DAD4EAD5FAD2D9711
:1048F0000E948D376B017C0120E030E0A9010E940D
:10490000833887FD7DC6C701B6010E94843B6B01D9
:104910007C012D962CAD3DAD4EAD5FAD2D9729960A
:104920006CAD7DAD8EAD9FAD29970E948E370E94F4
:10493000843B9B01AC01C701B60190580E948D38A1
:104940006B017C019FA1933021F4F7FAF094F7F802
:10495000F09420E030E0A90121966CAD7DAD8EADE4
:104960009FAD21970E94833887FF13C0F7FAF09418
:10497000F7F8F09421968CAD9DADAEADBFAD21970B
:10498000B0588093A2069093A306A093A406B09378
:10499000A50609A91AA9000F111F000F111F03571F
:1049A000194FA7019601C501B4010E94E53A9B0188
:1049B000AC01C301B2010E948D3720E030E040E03D
:1049C0005FE30E94E53AD8016D937D938D939C93AC
:1049D00013970DA91EA9000F111F000F111F0357D8
:1049E000194FA7019601C301B2010E94E53AA50142
:1049F00094010E948E3720E030E040E05FE30E94A7
:104A0000E53AF8016083718382839383F2CDC12EEE
:104A1000D12CE122FD2083E2EF2809F4AAC9F1EFAD
:104A20002F2280918006813041F50DE716E0F12CB0
:104A3000E12CC6010E2C02C0959587950A94E2F7E9
:104A400080FF12C023E333E34BEC51E4D8015096CE
:104A50006D917D918D919C9153970E94E53AF8015B
:104A6000608B718B828B938BFFEFEF1AFF0A0C5FC9
:104A70001F4F23E0E216F104E1F6E9A9FAA9EE0FCF
:104A8000FF1FEE0FFF1FE357F94FC080D180E28078
:104A9000F380A7019601C301B2010E948D372B015B
:104AA0003C01EDA9FEA9EE0FFF1FEE0FFF1FE3571C
:104AB000F94F80819181A281B38189AB9AABABAB75
:104AC000BCAB9C01AD01C501B4010E948D374B0107
:104AD0005C01A3019201C301B2010E94E53A2B01DE
:104AE0003C01A5019401C501B4010E94E53A9B0176
:104AF000AC01C301B2010E948E370E94843B4B017E
:104B00005C01A7019601C701B6010E94E53A6B015D
:104B10007C0129A93AA94BA95CA9CA01B9010E9443
:104B2000E53A9B01AC01C701B6010E948E370E9495
:104B3000843B6B017C01C092A206D092A306E09256
:104B4000A406F092A506AC019B01C501B4010E9428
:104B50008D374B015C01E894B7F82AE037ED43EA62
:104B60005BE3C501B4010E94A53A18160CF041CDD3
:104B700020E030E040E05FE3C501B4010E94A53AC7
:104B800018160CF451CE2FE632E143E85AE3C70180
:104B9000B6010E94E53A9B01AC01C501B4010E9437
:104BA000A53A18160CF025CD3FCE8E7D9C7F28CDE2
:104BB00080912D06F090460681FF12C08FA1815092
:104BC000833018F0BBA1B064BBA3EB8DEE2309F4D6
:104BD00033C1FF8DF23009F02FC12BA120682BA328
:104BE00080919A0690919B06A0919C06B0919D069B
:104BF0008093510690935206A0935306B0935406A7
:104C000080917F0680933E06882311F088E08D8B8B
:104C10008091890690918A06A0918B06B0918C06AE
:104C200080934C0690934D06A0934E06B0934F068A
:104C30008D879E87AF87B88B2091A6063091A706F7
:104C40004091A8065091A9066091480670914906C6
:104C500080914A0690914B060E948338811103C0CF
:104C60009BA195FF15C0FF2019F08F2D0E94AE1754
:104C70008091A6069091A706A091A806B091A906DA
:104C80008093480690934906A0934A06B0934B063A
:104C9000ABA1A6FD0CC08091480690914906A09159
:104CA0004A06B0914B06898B9A8BAB8BBC8B80915B
:104CB000AA06809350068091870690914606981721
:104CC00031F00E94AE1780918706809346068D8949
:104CD00090914606892B8D8BF09086068091450633
:104CE0008F1579F08091DB05823029F00E947717CB
:104CF0008F2D0E942903909186069111B4C01092C5
:104D000045068D8990914506892B8D8B80917D0676
:104D1000843099F48091DB05823079F0C0909E0652
:104D2000D0909F06E090A006F090A1060E94771711
:104D300040E0C701B6010E94491780918206809326
:104D400041068091800680933F06BF8DB33071F598
:104D50008091830680934206811108C01092B306A9
:104D60001092B4061092B5061092B606C090B30623
:104D7000D090B406E090B506F090B606A701960173
:104D80006091790670917A0680917B0690917C06FD
:104D90000E948338882351F0C0927906D0927A0617
:104DA000E0927B06F0927C060E94A917809184060F
:104DB00090914306981769F0809343068CE0FE01BA
:104DC0003196A1E6B6E001900D928A95E1F70E9436
:104DD000A917809181068093400680917D068632D6
:104DE00009F484C008F045C08C3109F465C08E31E7
:104DF00009F462C08A3009F449C080917E0680932C
:104E00003D06803509F44FC3BF8DB23009F04BC366
:104E1000813009F07FC0BE01635F7F4F8BEA96E06F
:104E20000E940C1D8CE0EBEAF6E0A5E5B6E00190EF
:104E30000D928A95E1F737C330E1F312D1CE9BA1F1
:104E4000907480913D068150833038F4992309F4A1
:104E5000C7CE4BA140624BA3C3CE9111C1CE8BA153
:104E600080628BA3BDCE80914506892B8093450639
:104E700048CF8C3509F440C0863609F443C08832E7
:104E800009F0BBCF65E576E087E033C06DE876E0FA
:104E900089A50E94BC1780914306E9A5E813ADCF10
:104EA0008CE0EDE8F6E0A1E6B6E001900D928A957F
:104EB000E1F70E94A917A1CF8D8981608D8BFF8DAD
:104EC000FF2329F0B8018BEA96E00E940C1DB8017F
:104ED0008DE896E00E940C1D8CE0EDE8F6E0A5E57B
:104EE000B6E001900D928A95E1F787CF65E576E00F
:104EF00086E00E94BC1781CF8CE0EBEAF6E0ADE6DD
:104F0000B6E0D3CFEDE6F6E08CE0DF011D928A95A6
:104F1000E9F7CFCF811105C08D8981608D8BB801F4
:104F20007DCF8250823008F097C28091A206909186
:104F3000A306A091A406B091A5068F8F98A3A9A35C
:104F4000BAA3A9AD94E0A99F70011124F701EB5A0F
:104F5000F94FF8A7EFA397012357394F3AA729A78D
:104F6000D9014D905D906D907C902081318142817E
:104F70005381C301B2010E948E376DA77EA78FA710
:104F800098ABEBADB4E0EB9F8001112498012B5A54
:104F9000394F3AAF29AFC8018357994F9CAF8BAFB8
:104FA000DC018D909D90AD90BC90F9012081318104
:104FB00042815381C501B4010E948E3769AB7AAB3F
:104FC0008BAB9CAB77FA709477F87094D501C401E1
:104FD000B0588B8F9C8FAD8FBE8FF701E555F94F81
:104FE0002DA53EA54FA558A960817181828193812D
:104FF0000E948D376B017C01F801E555F94F29A915
:105000003AA94BA95CA960817181828193810E9438
:105010008D374B015C01A7019601C301B2010E94CB
:10502000E53A6DAB7EAB8FAB98AFA50194016B8D6C
:105030007C8D8D8D9E8D0E94E53A9B01AC016DA902
:105040007EA98FA998AD0E948E376DAB7EAB8FABDA
:1050500098AFA5019401C301B2010E94E53A4B014A
:105060005C01A70196016B8D7C8D8D8D9E8D0E94BC
:10507000E53A9B01AC01C501B4010E948D372DA911
:105080003EA94FA958AD0E940D386B017C019BA130
:1050900092FF68C12DEB37E346E055EBC701B6013F
:1050A0000E94A53A87FD0AC02BED3FE049EC50E491
:1050B000C701B6010E948D376B017C0180902106EB
:1050C00090902206A0902306B09024062F8D38A140
:1050D00049A15AA1CA01B9010E948E37A5019401C4
:1050E0000E948D37A50194010E94E53A0E94843BFD
:1050F0004B015C0120E030E040E05FE3C701B60116
:105100000E94E53A2F8D38A149A15AA10E94E53AA3
:105110009F77A50194010E948D380E9472390E94E8
:1051200006397EAB6DABDB01AB2B09F474CE1D8968
:1051300090E080E00E9435394B015C0113FF0EC006
:10514000AC019B016D857E858F8598890E94E53A2B
:105150006D877E878F87988B177F1D8BA5019401A4
:10516000C701B6010E948D386BA37CA38DA39EA3BB
:105170002296EFAD2297B4E0EB9FC00111248C0181
:105180000B5A194F8555994FD8012D913D914D914D
:105190005C91FC0160817181828193810E948D37D5
:1051A000A50194010E948D3829966CAF7DAF8EAF1A
:1051B0009FAF29972BA13CA14DA15EA1CA01B901C6
:1051C0000E94E53A9B01AC0160E070E080E090E471
:1051D0000E948D376B017C012BEA3AEA4AE25EE3DA
:1051E0006BA17CA18DA19EA10E94E53A4B015C01BF
:1051F00020E030E040E850E4C701B6010E948E375D
:105200009B01AC01C501B4010E94E53A21966CAF47
:105210007DAF8EAF9FAF219720E030E040E05FE3AD
:10522000C701B6010E94E53A25966CAF7DAF8EAFFF
:105230009FAF25971F8E22242394312CEDA9FEA920
:10524000E215F30509F4E7CDFF8DFC3008F09EC0B0
:10525000A301920121966CAD7DAD8EAD9FAD2197DE
:105260000E94E53A6B017C012B8D3C8D4D8D5E8D4E
:1052700025966CAD7DAD8EAD9FAD25970E94E53A2C
:105280009B01AC01C701B6010E948E377B016C0106
:10529000A301920125966CAD7DAD8EAD9FAD259796
:1052A0000E94E53A4B015C012B8D3C8D4D8D5E8D4E
:1052B00021966CAD7DAD8EAD9FAD21970E94E53AF4
:1052C0009B01AC01C501B4010E948D372B013C014B
:1052D0002F8D2F5F2F8F470156018B8E9C8EAD8EA9
:1052E000BE8EA30192016DA57EA58FA598A90E94EF
:1052F0008E37EFA1F8A560837183828393832B8D12
:105300003C8D4D8D5E8D69A97AA98BA99CA90E94BF
:105310008E37A9ADBAAD6D937D938D939C93139702
:1053200029962CAD3DAD4EAD5FAD2997F80160815A
:105330007181828193810E948E37D8016D937D9314
:105340008D939C931397BE01635F7F4F85E596E035
:105350000E940C1D8091DC05811164CDBFEF2B1ADA
:105360003B0A6CCF2DEB37E346E055E3C701B601AE
:105370000E94833818160CF4A1CE2BED3FE049ECC7
:1053800050E4C701B6010E948E3796CEB10190E07D
:1053900080E00E9435392BA13CA14DA15EA10E9465
:1053A000E53A6B017C010E9488386B8F7C8F8D8F72
:1053B0009E8FC701B6010E94763B4B015C01A9A5F7
:1053C000BAA5CD90DD90ED90FC90F7FAF094F7F847
:1053D000F094ABADBCAD8D919D910D90BC91A02D85
:1053E0008F8F98A3A9A3BAA3A70196016B8D7C8D7B
:1053F0008D8D9E8D0E94E53A2B013C012F8D38A1A9
:1054000049A15AA1C501B4010E94E53A9B01AC0132
:10541000C301B2010E948E372B013C01A701960106
:10542000C501B4010E94E53A6B017C012F8D38A1C2
:1054300049A15AA16B8D7C8D8D8D9E8D0E94E53A80
:105440009B01AC01C701B6010E948D376B8F7C8F29
:105450008D8F9E8F1F8E45CF8D8984608D8B80911F
:10546000DB05823009F4DECC0E9477178091DC05E1
:10547000811119C0FBA1F071FF2E1092E0052BA144
:1054800023FB882780F90E94580786B1807290918B
:10549000C105891719F184E00E9449030E9466162C
:1054A00080E00E94580780918506809344068823F7
:1054B00011F40C94B91E0E947717809144069091C4
:1054C000DB05833009F04DC0923029F088E00E945E
:1054D00059030E94661610924406F6C8B8018BEA7A
:1054E00096E00E940C1D81E08093DA0582E00E9424
:1054F00059030E9466168091DC058111D4CF8091FA
:10550000DB058111F6CF8091DA05813031F5FF207E
:1055100001F18CE0E2ECF5E0AEECB5E001900D922B
:105520008A95E1F71092DA0580E00E9458070E9400
:1055300066160E94D70A0E94CB090E946A070E9441
:105540002E078091E005882309F46CCC0E94220488
:10555000AACF85E00E944903E5CF81E08093E00572
:10556000E1CF81E080933D06109241061092400603
:1055700010923E061092430610924606109245067F
:1055800084E68093E2058093E3058093E4059230FE
:1055900089F061E676E080E00E94D017882311F45C
:1055A0000C945A210E94A91780E00E948E0480E08A
:1055B0000E94290388E692E00E94AD058FEF91E0FA
:1055C0000E94AD050E94290786CF81E00C94B91E88
:1055D00082E00C94B91E88E10C94B91E86E20C940A
:1055E000B91E89E10C94B91E84E00C94B91E8BE1BC
:1055F0000C94B91E85E20C94B91E80E20C94B91E7D
:1056000082E20C94B91E84E20C94B91E80E10C94E1
:10561000B91E8FE00C94B91ECF93DF93C0E08C2F9E
:105620000E948817811114C01092B7068EE30E9461
:10563000A7040E94C3048AE30E94A70487E00E9493
:10564000D805C13019F4DF91CF910895C1E0E7CFBB
:105650008091B7068823A9F30E94681DD82F8EE396
:105660000E94A7040E94C3048AE30E94A7048D2F0E
:105670000E94E405E6CF2F923F924F925F926F9285
:105680007F928F929F92AF92BF92CF92DF92EF92D2
:10569000FF920F931F93CF93DF93CDB7DEB7AB97F6
:1056A0000FB6F894DEBF0FBECDBF9091DC0591110F
:1056B000A4C189A7FE013D9689E0DF011D928A956C
:1056C000E9F786E08D8BE8EEF5E0FE8FED8F9E0129
:1056D0002A5E3F4F79016F0110E000E0812C912C90
:1056E00054018CE0382E99A5892F90E098A38F8FD4
:1056F000802F202F94E0002321F098E0013009F062
:1057000090E1223009F0B3C0D7019C932F8D38A1CE
:1057100002C0359527958A95E2F720FF17C020E053
:1057200030E040EC5FEBD60194966D917D918D91C8
:105730009C9197970E94E53A2B013C01A5019401A9
:105740000E94833887FD02C0420153010F5F1F4F43
:10575000B4E0CB0ED11CEFEFEE1AFE0A03301105B8
:1057600039F64090330650903406609035067090BC
:10577000360604E011E062EC75E0CE0101960E946D
:105780009D038091CA059091CB05A091CC05B09165
:10579000CD0589A39AA3ABA3BCA380912E06A82F05
:1057A000B0E0BBA7AAA7FE0131967F01C12CD12C86
:1057B000312C212CD501C401B0588DA39EA3AFA3D9
:1057C000B8A7298E8F8D98A1022C02C09595879538
:1057D0000A94E2F780FF8FC0C39421104BC0609100
:1057E000C2057091C3058091C4059091C5052091B3
:1057F000C6053091C7054091C8055091C905621B87
:10580000730B840B950B22E030E040E050E00E94E7
:105810004E372093C2053093C3054093C40550937F
:10582000C50588279927DC01821B930BA40BB50BB8
:105830008093C6059093C705A093C805B093C9058A
:105840008AA59BA5098C02C0959587950A94E2F7D5
:1058500080FFECC0112309F440C08DA19EA1AFA12F
:10586000B8A5F70180839183A283B3833CC0F7017D
:1058700030824CCFA98DA13059F56091C20570914D
:10588000C3058091C4059091C5052091C60530914E
:10589000C7054091C8055091C905620F731F841F49
:1058A000951F22E030E040E050E00E944E37209308
:1058B000C6053093C7054093C8055093C90520938A
:1058C000C2053093C3054093C4055093C505B8CFB6
:1058D00019A21AA21BA21CA2B3CFD7018D929D922E
:1058E000AD92BC921397E6E1F0E0EC0FFD1FE20DE4
:1058F000F31D8081D82AFFEF2F1A3F0A24E0E20E21
:10590000F11C33E02316310409F05BCF89A19AA181
:10591000ABA1BCA18093CA059093CB05A093CC0505
:10592000B093CD056C2D70E090E080E00E94353999
:105930000E94843BD092E105A30192010E94E53AC6
:105940006D877E878F87988BBE01635F7F4FCE0107
:1059500001960E94181994E09093DF050E940A0BAB
:105960000E947504112321F10E944E026E899F89C5
:10597000692B6095788D7095FE01769630E020E079
:1059800090E041914D2169F0AC01022E02C0559585
:1059900047950A94E2F740FF04C0223009F04FC057
:1059A000D7222F5F3F4F2330310559F7D092E105C1
:1059B0000E940A0B8091C005847309F4FFC0F09027
:1059C000C005F4FE03C086E00E944903F5FE03C053
:1059D00087E00E944903111149C10E944E02A9A506
:1059E0008A2319F088E00E9449038091BF0588232B
:1059F00041F10E94B70A0E946616AB960FB6F89462
:105A0000DEBF0FBECDBFDF91CF911F910F91FF90F1
:105A1000EF90DF90CF90BF90AF909F908F907F904E
:105A20006F905F904F903F902F900895112309F44D
:105A300014CFF70180829182A282B38254CFD62202
:105A4000B0CF84E00E944F030E94D70A80913706AE
:105A500090913806019708F0B6C021E01227C09057
:105A60003906D0903A06E0903B06F0903C061123B0
:105A700009F4B0C020E030E040EA50E4C701B601CC
:105A80000E94E53A4B015C0140902F065090300691
:105A90006090310670903206015009F06CCE209073
:105AA0002E06312CD701C601B058898F9A8FAB8F43
:105AB000BC8FA090CA05B090CB050091CC05109189
:105AC000CD05912C812C8F8D98A1082C02C0959525
:105AD00087950A94E2F780FF59C0AD8DBE8D4D9039
